:0C00F9000A08FC06DAF24CB6E0FEF60045
:1000D700D2A0B2A07FE87E037D007C0012008F8053
:0100E700F127
:10008F008F158E148D138C12758901E4FFFEFDFC04
:10009F00AB15AA14A913A812C31200E86029758A18
:1000AF00B2758CFED28C308DFDC28CC28DE51524BD
:1000BF00FFF515E51434FFF514E51334FFF513E5DB
:0800CF001234FFF51280C42277
:03000000020003F8
:0C000300787FE4F6D8FD75811502004AF4
:1000E800EB9FF5F0EA9E42F0E99D42F0E89C45F06E
:0100F80022E5
:10000F000200D7E493A3F8E493A34003F68001F230
:10001F0008DFF48029E493A3F85407240CC8C333F2
:10002F00C4540F4420C8834004F456800146F6DFC1
:10003F00E4800B01020408102040809000F9E47E58
:10004F00019360BCA3FF543F30E509541FFEE493B6
:10005F00A360010ECF54C025E060A840B8E493A37D
:10006F00FAE493A3F8E493A3C8C582C8CAC583CAA8
:10007F00F0A3C8C582C8CAC583CADFE9DEE780BE60
:0101050000F9
:00000001FF
