:03000000020003F8
:0C000300787FE4F6D8FD75811502004AF4
:0C010E000A08FC06DAF24CB6E0FEF6002F
:1000D700E4F590C2B0D2B18509A07F64FEFDFC12A1
:1000E700008FD2B0C2B1850AA07F647E007D007CFC
:0600F7000012008F80DA08
:10008F008F158E148D138C12758901E4FFFEFDFC04
:10009F00AB15AA14A913A812C31200FD6029758A03
:1000AF0018758CFCD28C208DFDC28CC28DE5152469
:1000BF00FFF515E51434FFF514E51334FFF513E5DB
:0800CF001234FFF51280C42277
:10000F000200D7E493A3F8E493A34003F68001F230
:10001F0008DFF48029E493A3F85407240CC8C333F2
:10002F00C4540F4420C8834004F456800146F6DFC1
:10003F00E4800B010204081020408090010EE47E42
:10004F00019360BCA3FF543F30E509541FFEE493B6
:10005F00A360010ECF54C025E060A840B8E493A37D
:10006F00FAE493A3F8E493A3C8C582C8CAC583CAA8
:10007F00F0A3C8C582C8CAC583CADFE9DEE780BE60
:01011A0000E4
:1000FD00EB9FF5F0EA9E42F0E99D42F0E89C45F059
:01010D0022CF
:00000001FF
